:100000000C9457090C947F090C947F090C947F0978
:100010000C947F090C947F090C947F090C947F0940
:100020000C947F090C947F090C9491130C94001488
:100030000C947F090C947F090C947F090C947F0920
:100040000C947F090C947F090C947F090C947F0910
:100050000C947F090C947F090C947F090C94321640
:100060000C947F090C947F090C947F090C947F09F0
:100070000C947F090C947F090C947F090C947F09E0
:100080000C947F090C947F090C947F090C947F09D0
:100090000C947F090C947F090C947F090C947F09C0
:1000A0000C947F090C947F090C947F0905A84CCD12
:1000B000B2D44EB93836A9020C50B9918688083CA2
:1000C000A6AAAA2ABE000000803F00000000003E51
:1000D0005B4F5B3E3E6B4F6B3E1C3E7C3E1C183CB8
:1000E0007E3C181C577D571C1C5E7F5E1C00183C14
:1000F0001800FFE7C3E7FF0018241800FFE7DBE75D
:10010000FF30483A060E2629792926407F05050743
:10011000407F05253F5A3CE73C5A7F3E1C1C08089F
:100120001C1C3E7F14227F22145F5F005F5F060964
:100130007F017F006689956A606060606094A2FFBD
:10014000A29408047E040810207E201008082A1CAF
:1001500008081C2A08081E101010100C1E0C1E0C7B
:1001600030383E3830060E3E0E060000000000001B
:10017000005F00000007000700147F147F14242A8A
:100180007F2A12231308646236495620500008075C
:100190000300001C2241000041221C002A1C7F1C7D
:1001A0002A08083E0808008070300008080808087F
:1001B000000060600020100804023E5149453E00E6
:1001C000427F400072494949462141494D33181444
:1001D000127F1027454545393C4A49493141211193
:1001E00009073649494936464949291E0000140085
:1001F00000004034000000081422411414141414A8
:10020000004122140802015909063E415D594E7C05
:100210001211127C7F494949363E414141227F41BA
:1002200041413E7F494949417F090909013E414118
:1002300051737F0808087F00417F41002040413F03
:10024000017F081422417F404040407F021C027F12
:100250007F0408107F3E4141413E7F090909063E67
:100260004151215E7F091929462649494932030136
:100270007F01033F4040403F1F2040201F3F403848
:10028000403F631408146303047804036159494D23
:1002900043007F4141410204081020004141417F59
:1002A00004020102044040404040000307080020CF
:1002B000545478407F2844443838444444283844CF
:1002C00044287F385454541800087E090218A4A406
:1002D0009C787F0804047800447D40002040403D25
:1002E000007F1028440000417F40007C047804789F
:1002F0007C080404783844444438FC182424181832
:10030000242418FC7C08040408485454542404048D
:100310003F44243C4040207C1C2040201C3C40307A
:10032000403C44281028444C9090907C4464544CA9
:100330004400083641000000770000004136080004
:1003400002010204023C2623263C1EA1A161123AAE
:100350004040207A385454555921555579412154FB
:10036000547841215554784020545579400C1E5200
:1003700072123955555559395454545939555454A4
:10038000580000457C410002457D420001457C400B
:10039000F0292429F0F0282528F07C545545002028
:1003A00054547C547C0A097F4932494949323248C5
:1003B000484832324A4848303A4141217A3A42402C
:1003C0002078009DA0A07D39444444393D40404000
:1003D0003D3C24FF2424487E4943662B2FFC2F2BD1
:1003E000FF0929F620C0887E090320545479410072
:1003F00000447D413048484A32384040227A007AF1
:100400000A0A727D0D19317D2629292F28262929CE
:10041000292630484D4020380808080808080808F0
:10042000382F10C8ACBA2F102834FA00007B000017
:1004300008142A142222142A14089500220095AACE
:10044000005500AAAA55AA55AA000000FF001010E6
:1004500010FF00141414FF001010FF00FF1010F024
:1004600010F0141414FC001414F700FF0000FF0037
:10047000FF1414F404FC141417101F10101F101F85
:100480001414141F00101010F0000000001F1010B2
:1004900010101F10101010F010000000FF101010AE
:1004A000101010101010FF10000000FF140000FFCB
:1004B00000FF00001F10170000FC04F414141710B4
:1004C000171414F404F40000FF00F71414141414A7
:1004D0001414F700F7141414171410101F101F141D
:1004E0001414F4141010F010F000001F101F00007E
:1004F000001F14000000FC140000F010F01010FFAA
:1005000010FF141414FF141010101F00000000F04E
:1005100010FFFFFFFFFFF0F0F0F0F0FFFFFF000023
:10052000000000FFFF0F0F0F0F0F38444438447CCA
:100530002A2A3E147E02020606027E027E026355CD
:100540004941633844443C04407E201E2006027E1C
:10055000020299A5E7A5991C2A492A1C4C7201722E
:100560004C304A4D4D303048784830BC625A463D98
:100570003E494949007E0101017E2A2A2A2A2A444D
:10058000445F444440514A444040444A5140000082
:10059000FF0103E080FF000008086B6B083612368D
:1005A0002436060F090F060000181800000010106E
:1005B000003040FF0101001F01011E00191D17122C
:1005C000003C3C3C3C0000000000F0F89C8E87831F
:1005D000878E9CF8F00000FEFF0303030303070E61
:1005E000FCF80000FEFF0303030303070EFCF80002
:1005F00000FFFF00000000000000FFFF0000FEFF02
:100600008383838383C7EE7C380000F8FC0E0703E6
:100610000303070EFCF800003F7FE0C08080C0E0CD
:100620007F3FFFFF01010101010101FFFF0000FF0A
:10063000FF0C0C0C0C1C3E77E3C100007FFFC0C018
:10064000C0C0C0E0703F1F00001F3F70E0C0C0C0CE
:10065000E0703F1F00007FFFC1C1C1C1C1E3773E11
:100660001C00001F3F70E0C0C0C0E0703F1F0000D2
:1006700000000001FFFF01000000D5F08D14A1C8AB
:1006800081CFD9F1AF200053454C45435445440038
:1006900050726963653A0005077E7949797E455352
:1006A00050626F79004D4C585858700056414D506B
:1006B0004952494353004452554D4D5946495348B8
:1006C00000504841524150004D522E424C494E4B31
:1006D000590046494C4D4F54450050414E4441004D
:1006E00053454E534549004D555348424F590056C6
:1006F0004943544F524941004E494E4A4100040774
:10070000081C3E7F04077F3E1C0843686F6F7365BB
:1007100020796F75722072756E6E6572002B3500D0
:100720002B31300007071C1C3E3E777F6B7F777FA5
:100730003E3E1C1C000000003E3E637F3E3E00002B
:1007400000001404080808080C0E0E0E070F060619
:100750000C0C0C040C0C08080403020402010F0426
:100760000F0F040F0F0F000F0E0F050F0E0F000FCE
:100770000F0F030F0C0F000F0F0F090F060F090CBF
:100780000000A0A001010404505004040101A0A035
:10079000000000000202000007070507070700002D
:1007A000020200000000505000008181AAAA81814D
:1007B000000050500000000001010000030302038C
:1007C0000303000001010000090C00005454000064
:1007D0000E0EAAAE0E0E00005454000000000000E1
:1007E00008080202000002020808000000000000E1
:1007F000A8A800001C1C545C1C1C0000A8A8000039
:1008000000000000000008080505080800000000BE
:100810000000090C7F7F447C577F447C677F447CC9
:100820004F7F447C7F7F000000000000000000003C
:100830000000000000000000FFFF88F8AFFF88F80C
:10084000CFFF88F89FFF88F8FFFF0000000000003E
:10085000000000000000000000000000090CF0F0A3
:1008600010F050F010F030F010F090F010F0F0F0C8
:100870000F0F01010F0F01010F0F01010F0F0101F8
:100880000F0FE0E020E0A0E020E060E020E020E0CA
:1008900020E0E0E00F0F02030E0F02030E0F020331
:1008A0000F0F02030F0F080C3C3C427E81FFC9FF73
:1008B00095F7A5E74242000000000000000000009C
:1008C00000000000000000003C3C427E81FF89FFE8
:1008D00089FFA9FF4A7E3C3C0000000000000000A8
:1008E0000000000000000000080CC0C020E010F074
:1008F00030F090F050702020000003030407080F30
:10090000090F0A0E0A0E04040000C0C020E010F017
:1009100010F010F050F020E0C0C003030407080FEF
:10092000090F090F090F05070303080C0E0E2727EF
:100930003F3F07077E7E507070701010000000006F
:100940000000000000000000000000000E0E07077D
:10095000070707077E7E50707070101000000000BF
:10096000000000000000000000000000080C000073
:10097000000000000000E0E0A0E0E0E08080070769
:100980000E0E0E0E0E0E0707000000000000000005
:100990004040C0C00000E0E0A0E0E0E08080070749
:1009A0000E0E0F0F0E0E0707000000000000080CCF
:1009B000F0F008F867FF01FF01FF67FF08F8F0F0AB
:1009C000000001010203020302030203010100000F
:1009D000787884FC33FF01FF01FF33FF84FC7878D3
:1009E00000000000010101010101010100000000FF
:1009F000080CF0F008F864FC04FC04FC64FC08F843
:100A0000F0F0000001010E0F080F080F0E0F01019A
:100A10000000E0E010F0C8F808F808F8C8F810F096
:100A2000E0E0010102030C0F080F080F0C0F020396
:100A30000101080CFCFC02FEC4FC04FC02FEC1FF28
:100A400002FEFCFC0101020304070407040704077B
:100A500002030101FCFC02FEC1FF02FE04FCC4FC17
:100A600002FEFCFC0101020304070407040704075B
:100A700002030101080CF8F804FC32FE02FE02FE3B
:100A800032FE04FCF8F803030407080F040702030E
:100A9000020304070303F8F804FC32FE02FE02FE20
:100AA00032FE04FCF8F80303040702030203040700
:100AB000080F04070303090C07075C5C2E3E3D3D4D
:100AC0003C3C3D3D2E3E5C5C070700000000000002
:100AD0000000000000000000000000000F0FB8B888
:100AE0005C7C7A7A78787A7A5C7CB8B80F0F0000F0
:100AF00000000000000000000000000000000000F6
:100B0000090C0000D0D0A0E0E0E0E0E0E0E0A0E0F0
:100B1000D0D000000F0F01010303050501010505F9
:100B2000030301010F0F0000A0A040C0C0C0C0C05F
:100B3000C0C040C0A0A000000E0E030307070B0BAF
:100B400003030B0B070703030E0E080C0000F8F855
:100B5000C7FFC4FCFCFCFCFC3CFCFFFF0707090FC3
:100B60000B0F0F0F07070707070703038080FCFC25
:100B7000E3FFE0FCFCFCFCFC9CFCFFFF0303040720
:100B8000050707070303030303030101080C0E0E07
:100B9000F9FF3DFF3FFFFEFEFEFECEFEFCFC000027
:100BA00001010E0F02030303030303030F0F1C1CB9
:100BB000F2FE7AFE7EFEFCFCFCFC9CFCF8F80000D9
:100BC000030300030C0F03030F0F03030303080CBD
:100BD000F8F80FFF04FC34FCC4FC7FFF7CFCFEFE35
:100BE00000000101020302030707040705070303CE
:100BF000787884FC07FF1CFCE7FF3CFCBCFCFEFE95
:100C000000000000010101010303020302030101CE
:100C1000080CF0F008F804FCC4FC3EFEE2FEEAFE1C
:100C2000FCFC01010F0F0203020302030F0F030379
:100C30000707E0E010F008F888F87CFCC4FCD4FC5E
:100C4000F8F8010102030E0F03030E0F0303030361
:100C50000707080CF0F008F83FFF44FC44FC44FC94
:100C600054FCFFFF00000101020302030203020320
:100C700002030101787884FC1EFE23FF22FE23FF7D
:100C80002AFEFEFE00000000010101010101010138
:100C900001010000080CF0F008F8C4FC24FC24FC5E
:100CA00024FCA4FCF8F8000001010F0F020302036A
:100CB000020302030F0FE0E010F088F848F848F84C
:100CC00048F848F8F0F00101020307070C0F040789
:100CD0000C0F05070707080C0000F8F8FFFF84FC5D
:100CE0001CFC04FC84FCFFFF0000030307070F0F3C
:100CF0000F0F0E0F0E0F07070000F8F8FCFCC7FFE0
:100D00008CFC07FF44FCFCFC000001010303070707
:100D10000707070707070303080C0000FCFCFEFE9B
:100D20001FFF8FFF07FF17FFFEFE000001010F0FDF
:100D300002030303020302030F0F0000F8F8FCFC98
:100D40003EFE1EFE0EFE2EFEFCFC00000101030313
:100D50000E0F03030E0F02030303080C8080000034
:100D6000FEFE08F868F808F888F8FEFE02020303A1
:100D700007070E0F0E0F0E0F0E0F07074040808063
:100D8000F8F80EFE38F80EFE48F8F8F801010101F7
:100D9000030307070707070707070303080C2828AB
:100DA0001818FCFC0EFECEFE0EFE2EFEFCFC000013
:100DB00000000F0F02030203020302030F0F505043
:100DC0003030F8F81CFC9CFC1CFC5CFCF8F80000C3
:100DD000000003030E0F03030E0F02030303412D54
:100DE000436F6E74696E756500596F75206C6F7313
:100DF000650052494748542D6E6F004C4546542DAE
:100E00007965730051756974207468652067616D38
:100E1000653F001010000000000000FEB7B7FE00A4
:100E200000000000000000000000007FEDED7F00EA
:100E300000000000008040000000C0C0C0C0C0C072
:100E4000C0C080000080C0C0C040000000000000A2
:100E50000080C0C0C08000000080C0C0C0C0C0C052
:100E6000C080000080C0C0C0C0C0C0C0C0000000C2
:100E70000000008080C0C0C0C0C0C0C0C0C00000B2
:100E8000808080000000808080000080C0C0C000A2
:100E9000008080C0C00080C0C0C000008080C0C092
:100EA0000080C0C0C0C0C0C0C0C000008080C0C042
:100EB000C0C0C0C0C0C0C0C0F0FDFDDDCDCDEDFDE7
:100EC0007D3D85E0FCFDFDEDE1E0E0E0F0F87C3CFF
:100ED0001D0D1DFDFDFDF8C0F8FDFDCDC1C1E1F109
:100EE0007D3D9CE0FDFDFDEDEDEDED0D0100000013
:100EF00000C0F9FD7D1D0D0DCDFDFD7D3D0570FD95
:100F0000FDFDE1E0F0FC7D1DC1F0FC7D1D051DFD3A
:100F1000FDFD3DC5F1FC7D1D051DFDFDFD3D058172
:100F2000E0FDFDFDEDEDEDED0D01C0F9FD7D1D0DCB
:100F30000DCDFDFD7D3D05202020202020202020FE
:100F400020202020202020202020202020202020A1
:100F50002020202020202020202020202020202091
:100F60002020202020202020202020202020202081
:100F70002020202020202020202020202020202071
:100F80002020202020202020202020202020202061
:100F90002020202020202020202020202020202051
:100FA0002020202020202020202020202020202041
:100FB0002020202020202000000000000000000051
:100FC0000000000000000000000000000000000021
:100FD0000000000000000000000000000000000011
:100FE00000000000000000F010E000F0D000708071
:100FF000C080700000000000F090D000E050E000E1
:10100000F0204020F000F0D00000000000000000C0
:1010100000000000000000000000000000000000D0
:1010200000000000000000000000000000000000C0
:1010300000000000000000000000000000000000B0
:101040000000000000000080E07078FCFCFE7E7E66
:10105000FEFCFC7870E08000000000000000000052
:1010600000000000000000000000000000781800F0
:1010700078400070287000186018007868007818B0
:101080006000000000000000000000000000000000
:101090000000000000000080E07078FCFCFE7E7E16
:1010A000FEFCFC7870E08000000000000000000002
:1010B0000000000000000000000000000000000030
:1010C00000000000000000071F3878FFFFF8F0F074
:1010D000F8FFFF78381F0700000000000000000044
:1010E00000000000000000000000001038000000B8
:1010F0003C340038143800283434000C300C000024
:101100000038100000000000000000000000000097
:1011100000000000000000071F3878FFFFF8F0F023
:10112000F8FFFF78381F07000000000000000000F3
:1011300000000000000000000000000000000000AF
:10114000000000000000000000000000000101019C
:10115000010000000000000000000000000000008E
:1011600000000000000000000000000000141A1A37
:10117000001E121E001E101E001E021C001E120C5D
:10118000000000000000000000000000000000005F
:10119000000000000000000000000000000101014C
:1011A000010000000000000000000000000000003E
:1011B00000000000000000080808080808080808E7
:1011C000080808080808080808080808080808089F
:1011D000080808080808080808080808080808088F
:1011E000080808080808080808080808080808087F
:1011F000080808080808080808080808080808086F
:10120000080808080808080808080808080808085E
:10121000080808080808080808080808080808084E
:10122000080808080808080808080808080808083E
:1012300008080808080808080B0002020200000954
:101240000400000102020000052400100105240131
:10125000010104240206052406000107058103108C
:10126000004009040100020A0000000705020240D4
:101270000000070583024000000403090412010076
:1012800002EF0201404123368000010102030141C7
:10129000726475696E6F204C4C43004172647569CD
:1012A0006E6F204C656F6E6172646F00AF16112413
:1012B0001FBECFEFDAE0DEBFCDBF11E0A0E0B1E0AE
:1012C000EEEBFAE502C005900D92A836B107D9F70A
:1012D00026E0A8E6B1E001C01D92A634B207E1F70E
:1012E00019E0C7E5D9E004C02197FE010E94572DFF
:1012F000C635D107C9F70E94FB160C945D2D0C94DE
:101300000000EEECF1E0A0E0B8E000800EBC81113E
:10131000012C1197A0FDFDCF0192B9F70DB40895EE
:10132000480F592F511D1416150684F58038910564
:101330006CF597FF02C090E080E04138510514F051
:1013400040E850E0481BFB01E770FF2721E001C0A7
:10135000220FEA95EAF777FF02C0695F7F4FFB0132
:1013600033E0F595E7953A95E1F7F695FE2FEE27F0
:10137000F795E795E80FF91FE253FE4F415030F023
:101380008191DF011197822B8C93F8CF0895FC0196
:101390008091C601882311F13FB7F89482E08093D1
:1013A000E9002091F200822F90E01816190614F43B
:1013B00081E090E0882339F0289844E64093C50105
:1013C0004091F1004083222339F02091F200211155
:1013D00003C02BE62093E8003FBF08958FEF9FEFF7
:1013E00008952FB7F89483E08093E9009091E80086
:1013F000892F807295FF04C09091F20080E4891BD0
:101400002FBF08958091BD0181110DC082E08093AE
:10141000B90184E08093BA011092BC011092BB0123
:1014200081E08093BD0189EB91E00895CF93DF9334
:101430001F92CDB7DEB76983DC01ED91FC9102808C
:10144000F381E02D41E050E0BE016F5F7F4F0995D1
:101450000F90DF91CF91089583E08093E900809110
:10146000F200882319F08AE38093E80008950E942F
:10147000F10990E00895CF93DF931F92CDB7DEB7C7
:10148000FC018485958597FD08C02FEF3FEF3587D8
:1014900024870F90DF91CF910895CE0101960E948D
:1014A000C709019719F4898190E0F3CF8FEF9FEF7F
:1014B000F0CF0F931F93CF93DF931F92CDB7DEB77B
:1014C0008C01FC018485958597FF0BC0CE010196A8
:1014D0000E94C709019771F4898190E0F80195870E
:1014E0008487F801848595850F90DF91CF911F91B6
:1014F0000F9108958FEF9FEFF1CFFC0184859585C3
:1015000097FD0BC09FB7F89482E08093E90080912B
:10151000F2009FBF90E0019608959FB7F89482E093
:101520008093E9008091F2009FBF90E00895409180
:10153000B3015091B4012091B1013091B201421731
:101540005307B4F49091E8009570E1F39091E800AE
:1015500092FD19C08093F1008091B3019091B40184
:1015600001968F739927892B19F48EEF8093E800E9
:101570008091B3019091B40101969093B40180934E
:10158000B30181E0089580E00895DF92EF92FF9229
:101590000F931F93CF93DF93D82E8A01EB017B012A
:1015A000E40EF51ECE15DF0559F0D7FE12C0FE0180
:1015B00084910E94970A21968111F4CF0FEF1FEFBB
:1015C000C801DF91CF911F910F91FF90EF90DF90B5
:1015D00008958881EECF0F931F93CF93DF931F92CF
:1015E000CDB7DEB782E0898342E450E067E372E181
:1015F00080E80E94C50A0E94020ADC0112960D9141
:101600001C910115110589F0D801ED91FC91028022
:10161000F381E02DBE016F5F7F4FC801099597FDF3
:1016200004C0F80100851185ECCF89810F90DF910E
:10163000CF911F910F910895615030F02091F100EA
:10164000FC0120830196F8CF289884E68093C50199
:101650000895AF92BF92CF92DF92EF92FF920F93D5
:101660001F93CF93DF936C017B018B01040F151F38
:10167000EB015E01AE18BF08C017D10759F06991A0
:10168000D601ED91FC910190F081E02DC601099504
:10169000892B79F7C501DF91CF911F910F91FF90B1
:1016A000EF90DF90CF90BF90AF9008953FB7F89440
:1016B00080916C0190916D01A0916E01B0916F01CC
:1016C00026B5A89B05C02F3F19F00196A11DB11D9D
:1016D0003FBFBA2FA92F982F8827BC01CD01620FD9
:1016E000711D811D911D42E0660F771F881F991F94
:1016F0004A95D1F708958F929F92AF92BF92CF9261
:10170000DF92EF92FF926B017C010E94560B4B011E
:101710005C01C114D104E104F104B9F00E94560B3C
:10172000681979098A099B09683E7340810591050A
:1017300080F321E0C21AD108E108F10888EE880E92
:1017400083E0981EA11CB11CE4CFFF90EF90DF90C6
:10175000CF90BF90AF909F908F9008958F929F925F
:10176000AF92BF92CF92DF92EF92FF920F931F93AF
:10177000CF93DF936C017B018A018091350188232F
:1017800009F45CC08091C601882309F457C0809198
:10179000B80180FF05C08091E00082608093E00086
:1017A000E801B12C8AEFA82E93E0892E2AE3922E2D
:1017B000209711F4BB20D9F10E94F10981110AC0D0
:1017C000AA94AA20D9F161E070E080E090E00E9444
:1017D0007B0BEECF8C171D0611F00CF08C2F9FB7F2
:1017E000F8948092E9002091E80025FD02C09FBF97
:1017F000DFCF282F30E0C21BD30BF701815020F040
:1018000041914093F100FACFE20EF31EBB2021F08C
:101810009092E800B12CEBCF8091E80085FDE7CFF6
:101820009092E800BB24B394209709F3F3CF5D981E
:1018300084E68093B701101611063CF081E090E039
:10184000F6019383828310E000E0C801DF91CF911D
:101850001F910F91FF90EF90DF90CF90BF90AF90CE
:101860009F908F9008954F925F926F927F928F9288
:101870009F92AF92BF92CF92DF92EF92FF920F931F
:101880001F93CF93DF934C015901FC2DC02FD0E063
:10189000CE01880D991D181619060CF06CC020E8B1
:1018A000821691040CF067C09B012E0D311D12169B
:1018B00013060CF060C0603471050CF05CC041157B
:1018C000510509F458C0E62FE770FE2EDB0177FDC5
:1018D000179633E0B595A7953A95E1F73A2F77FF3C
:1018E00004C0FF2011F03FEF3A0F662777276819F1
:1018F000790997FC02C070E060E0803891050CF433
:101900004BC090E89819961BA32F032E000CBB0B1D
:101910001A2F10953F3F0CF010E021E08E2D8770BC
:1019200009F420E0E694E694E694E20EAE0DB11DD3
:1019300019971CF028E0E22EE31AE11A310F20E893
:101940003203D0011124A80DB91DA60FB71F019FA6
:10195000600D711D1124460F571F0F2D0F2C000C09
:10196000110BF33009F41CC1C8F4F13009F4D0C0F4
:10197000F23009F47CC0DF91CF911F910F91FF905D
:10198000EF90DF90CF90BF90AF909F908F907F901F
:101990006F905F904F900895902FB5CFFA3FB1F1BF
:1019A000232F2E0DFB3F39F7321729F3BD01625368
:1019B0007E4FD12CC12CC91608F0A4C0FA01EC0D41
:1019C000FD1DE491F0E04F01002E02C0880C991C2F
:1019D0000A94E2F737FD06C0FB018081E82CE09411
:1019E0008E218083FF2061F0373054F45B01F0E8F2
:1019F000AF0EB11CE92CE094F50180818E2180832B
:101A0000FFEFCF1ADF0A6F5F7F4FD5CF232F2E0D49
:101A1000321709F4B0CFBD0162537E4FD12CC12CD7
:101A2000C91608F069C0FA01EC0DFD1DE491F0E063
:101A30004F01002E02C0880C991C0A94E2F737FD72
:101A400004C0FB01808188298083FF2051F037305A
:101A500044F45B01F0E8AF0EB11CF50180818929E7
:101A60008083FFEFCF1ADF0A6F5F7F4FD9CF6FEF11
:101A700070E00F2C02C0660F771F0A94E2F76095A2
:101A80007095772E232F2E0D321709F474CFFD0198
:101A9000E253FE4F6F01B12CA12CA91638F5FA01C3
:101AA000EA0DFB1DE491F0E02F01002E02C0440C72
:101AB000551C0A94E2F737FD05C0F60180818623A4
:101AC00084298083FF2059F037304CF44601F0E838
:101AD0008F0E911CF4018081872185298083FFEF7F
:101AE000AF1ABF0A8FEFC81AD80AD7CF3F5F4C0F83
:101AF0005D1FA058BF4FC8CF3F5F4C0F5D1FA05860
:101B0000BF4F86CF3F5F4C0F5D1FA058BF4F4CCFDC
:101B10006A0D7B1D232F2E0D321709F42CCFFD01EA
:101B2000E253FE4F6F01B12CA12CA91688F5FB01E1
:101B3000EA0DFB1D8490912C002E02C0880C991C8C
:101B40000A94E2F780949094FA01EA0DFB1D6490E8
:101B5000712C002E02C0660C771C0A94E2F737FD48
:101B600005C0F6018081882186298083FF2049F005
:101B700037303CF4F601E058FF4F808189218729F6
:101B80008083FFEFAF1ABF0A8FEFC81AD80ACDCFF4
:101B90003F5F4C0F5D1F6C0F7D1FA058BF4FBCCF28
:101BA000C92ED12CFA01E60FF71FA253BE4F00E851
:101BB00010E00C191D09CC19DD09BE01660F771F55
:101BC00041E050E06A010F2C01C0CC0C0A94EAF706
:101BD000592F2E2D792ECF93DF93ED01EF96EF96AF
:101BE00022968590A590FF2059F08C9C4001AC9CDA
:101BF000500137302CF4E880B094EB20E928E992CA
:101C000033233AF0EC90A094EA20E828ED920C946B
:101C10000A0E11965A9529F72A9551F0572D3395AA
:101C20001124E60FF11DA00FB11DC00FD11DD9CF9A
:101C3000DF91CF9111249FCECF92EF920F93FA01B3
:101C400004913196E4904E5F5F4F22E0C22E30E067
:101C500020E00E94330C0F91EF90CF900895CF9227
:101C6000EF920F934115510569F1FA0104913196F4
:101C7000E4904E5F5F4F2223F9F0A1E0B0E03E2DEB
:101C8000377011F4B0E0A0E0EE2DE695E695E6950C
:101C9000EA0FFB2FF11D0E9FD0010F9FB00D1124F5
:101CA00030E0220F331FA29FF001A39FF00DB29FDF
:101CB000F00D11244E0F5F1F23E0C22E30E020E014
:101CC0000E94330C0F91EF90CF9008952D9A0895B4
:101CD000BC0190E080E00C947B0B8FB18095807FFD
:101CE000669B88601C9B846008959091A80198234E
:101CF00029F49091A901982381E009F480E00895E6
:101D000080E00C94810980389105B8F46034710545
:101D1000A0F420E191E061FD94E060FD990F62FD87
:101D20009295687F269FD0011124A80FA253BE4F21
:101D30008C9140FF03C0892B8C9308959095892343
:101D4000FBCF2F923F924F925F926F927F928F9232
:101D50009F92AF92BF92CF92DF92EF92FF920F933A
:101D60001F93CF93DF93EC018B017A016901C61AAF
:101D7000D70AD7FE03C0D194C194D10847018C1A69
:101D80009D0A97FE03C09194819491088C149D0440
:101D900054F49E2D8F2D7901292F382F9C2F8D2FB4
:101DA000E801092F182FEC16FD0654F4902F812F0F
:101DB0008901292F382F9C2F8D2FE701E92EF82E2E
:101DC00017012C1A3D0A2901401A510A57FE03C077
:101DD000519441945108310137FE03C08FEF681AC6
:101DE000780A759467948FEF021713070CF481E05B
:101DF000A82E880FBB08EC16FD06A4F041E0BE013A
:101E0000C8018C149D0414F0B801CE010E94830E09
:101E10006418750877FE04C00A0D1B1D620C731C44
:101E20002196E9CFDF91CF911F910F91FF90EF9015
:101E3000DF90CF90BF90AF909F908F907F906F90EA
:101E40005F904F903F902F9008952F923F924F9226
:101E50005F926F927F928F929F92AF92BF92CF923A
:101E6000DF92EF92FF920F931F93CF93DF937C014A
:101E70004B01C42FD0E081E090E06C01CC1ADD0A68
:101E8000AA24BB24AC1ABD0AAA0CBB1C662463940A
:101E9000712C10E000E0822F8470582E822F827007
:101EA000482E822F8870382E2170222ED7FC06C033
:101EB000219782E0A80EB11CCA0CDB1C0F5F1F4FDC
:101EC00082E0680E711CC60CD71C552091F041E0D1
:101ED000BE01680D791DC701800F911F0E94830EFE
:101EE00041E0B401600F711FCE018E0D9F1D0E9455
:101EF000830E442091F041E0B4016C1B7D0BC701BF
:101F0000800F911F0E94830E41E0B401601B710B92
:101F1000CE018E0D9F1D0E94830E332091F041E073
:101F2000B401600F711FC7018C1B9D0B0E94830EB3
:101F300041E0BE01680D791DC701801B910B0E9415
:101F4000830E222091F041E0B401601B710BC701A8
:101F50008C1B9D0B0E94830E41E0B4016C1B7D0B1A
:101F6000C701801B910B0E94830E0C171D070CF4F8
:101F70009DCFDF91CF911F910F91FF90EF90DF9058
:101F8000CF90BF90AF909F908F907F906F905F9019
:101F90004F903F902F9008958F929F92AF92BF9253
:101FA000CF92DF92EF92FF920F931F93CF93DF9325
:101FB0006D3089F0C090A601D090A7016A30D1F4AD
:101FC0001092A5011092A40188E0C80ED11CD092F5
:101FD000A701C092A60181E090E0DF91CF911F910F
:101FE0000F91FF90EF90DF90CF90BF90AF909F90B8
:101FF0008F9008950091A4011091A501E5E06E9FD6
:10200000E0011124C653DF4F4801F12CF5E0E12C2B
:10201000FF1629F0CE010196FE01E490EC01B12CEF
:10202000A12C4E2D4170B6016A0D7B1DC4010E948A
:10203000830EE694FFEFAF1ABF0A88E0A816B1043A
:1020400081F7F394EFEF8E1A9E0AF6E0FF12DECFCF
:102050000A5F1F4F1093A5010093A401BCCF0F93FB
:102060001F93CF93DF938C01D0E0C0E0F801EC0F19
:10207000FD1F6491662341F082E496E00E94CC0F3C
:10208000892B11F02196F2CFCE01DF91CF911F91D4
:102090000F910895DF92EF92FF920F931F93CF93CA
:1020A000DF937C01D22E8B01040F111DEB0177FF12
:1020B00002C0D0E0C0E0C8010134110514F080E492
:1020C00090E0C817D9073CF44D2DBE01C7010E940E
:1020D000830E2196F0CFDF91CF911F910F91FF904A
:1020E000EF90DF9008955F926F927F928F929F9210
:1020F000AF92BF92CF92DF92EF92FF920F931F9316
:10210000CF93DF93EC017B01142F722E602E660CAF
:10211000542E5618802E912C5401A80EB91E452D10
:10212000C5010E9490096701C70CD11CB60161501E
:102130007109452DC5010E9490097618E80CF91C1B
:1021400021E0472DB701CE010E944A10C10FD11DD9
:1021500021E0472DB701CE0101970E944A1021E0EE
:10216000402FB701C5010E94250FC819D909219731
:1021700022E0402FB701CE010E94250F7601E8181A
:10218000F90881E0E81AF10824E0402FB701CE01F8
:102190000E94250F28E0402FB701C501DF91CF91A4
:1021A0001F910F91FF90EF90DF90CF90BF90AF9075
:1021B0009F908F907F906F905F900C94250F8091EF
:1021C000C701813029F480916A018F5F80936A0191
:1021D00080916A018150823060F483E08093AA018B
:1021E00080E48093900086E594E09093990080933A
:1021F000980080916A01843060F083E08093AA01A6
:1022000080E4809390008AE992E090939900809313
:10221000980080916A01863021F41092C7011092D3
:102220006A018091C701823029F4809169018F5F32
:1022300080936901809169018150873060F483E067
:102240008093AA0180E4809390008FE19EE49093B4
:1022500099008093980080916901893060F083E053
:102260008093AA0180E4809390008FE097E290939E
:10227000990080939800809169018D3021F410922B
:10228000C701109269018091C701833029F48091C0
:1022900068018F5F8093680180916801815084306C
:1022A00060F483E08093AA0180E48093900084E04E
:1022B0009DE09093990080939800809168018550EB
:1022C000853060F483E08093AA0180E480939000DD
:1022D00082E896E09093990080939800809168013D
:1022E000803160F083E08093AA0180E480939000C5
:1022F00086E594E09093990080939800809168011E
:10230000843121F41092C70110926801089510924F
:10231000C801109285011092CD0110929001109287
:1023200089011092830181E0809319011092840148
:1023300010927701109276018EE190E090931D014A
:1023400080931C01109282011092810184E190E03F
:1023500090931B0180931A0110921801109217019B
:10236000109288011092870182E090E090931F0103
:1023700080931E011092CC011092CB01E4E2F1E0B7
:102380008FE090E09183808389E290E09383828361
:10239000E1E9F1E01182108226E330E03383228309
:1023A0008EE184838AE08583EAE8F1E041E450E04D
:1023B000518340833383228394E1948385831092F5
:1023C0009A01109299011092860186EF9FEF9093E7
:1023D0000A018093090190930801809307011092EC
:1023E00098011092970110927E0110927D01109237
:1023F000AB018CE99FEF90933701809336010895EC
:10240000089590E080E008954F925F926F927F92DE
:102410008F929F92AF92BF92CF92DF92EF92FF92F4
:10242000CF93DF9300D000D000D0CDB7DEB79E832E
:102430008D837B018091CD01882379F18091CB013F
:102440009091CC0125E330E0281B390B4D815E8152
:1024500065E370E0CA010E94A10E84E190E09093D0
:10246000CA018093C9011092C80182E08093C7011C
:1024700026960FB6F894DEBF0FBECDBFDF91CF9189
:10248000FF90EF90DF90CF90BF90AF909F908F9094
:102490007F906F905F904F900895483251050CF0F7
:1024A00072C0BA0164517109072E000C880B990B98
:1024B0000E94BA2B26E53EE049EC5FE30E94852CA2
:1024C00020E030E040EA51E40E94102B2B013C0157
:1024D0000E940B2B4B015C01B701FF0C880B990B81
:1024E0000E94BA2B6B017C01C301B2010E94F22C45
:1024F0002B013C01A7019601C501B4010E94852C66
:102500009B01AC0160E070E084E592E40E949E2AA9
:102510000E94822B69837A838B839C832D813E81E9
:10252000B901330F880B990B0E94BA2B4B015C0148
:10253000A3019201C701B6010E94852C9B01AC0149
:10254000C501B4010E949F2A0E94822B29813A81F1
:10255000AB0165E370E08D819E8126960FB6F894FD
:10256000DEBF0FBECDBFDF91CF91FF90EF90DF9028
:10257000CF90BF90AF909F908F907F906F905F9023
:102580004F900C94A10E8D819E81E80EF91E25E3DB
:1025900030E0A70165E370E00E94A10E8091CB01BD
:1025A0009091CC018230910574F0F0923701E09265
:1025B000360186E390E0909339018093380181E001
:1025C0008093C80155CF019709F052CFF8CF8F9271
:1025D0009F92AF92BF920F931F93CF93DF93CDB78C
:1025E000DEB7A1970FB6F894DEBF0FBECDBF19A21C
:1025F000423008F44AE08E010F5D1F4F842E912C6B
:10260000B12CA12CA50194010E946D2AE62FB901DD
:10261000CA01EA3044F5E05DD801EE938D01232B29
:10262000242B252B79F790E080E0109769F0FD01CD
:1026300001900020E9F73197AF014A1B5B0BBD0108
:1026400082E496E00E94290BA1960FB6F894DEBFB3
:102650000FBECDBFDF91CF911F910F91BF90AF9073
:102660009F908F900895E95CD7CFCF92DF92EF9241
:10267000FF92CF93DF936C01990FEE08FF08F7FEEE
:1026800019C06DE282E496E00E94CC0FEC0166274F
:102690007727CB016C197D098E099F094AE00E94BA
:1026A000E7128C0F9D1FDF91CF91FF90EF90DF908D
:1026B000CF9008954AE0C701B601DF91CF91FF9016
:1026C000EF90DF90CF900C94E7128F929F92AF9291
:1026D000BF92CF92DF92EF92FF926B017C01C21604
:1026E000D306E406F50684F449015A018C189D08C6
:1026F000AE08BF080E94CD29A50194010E943B2A83
:10270000C60ED71EE81EF91EC701B601FF90EF9056
:10271000DF90CF90BF90AF909F908F9008950C94D2
:10272000252A1F920F920FB60F9211248F939F9319
:102730008091E1009091E100937F9093E10083FF0D
:102740000FC01092E90091E09093EB001092EC0022
:1027500092E39093ED001092C60198E09093F00000
:1027600082FF22C093E09093E9009091F2009923B8
:1027700019F09AE39093E8009091B701992341F002
:102780009091B70191509093B701911101C05D9A5A
:102790009091C501992341F09091C501915090937A
:1027A000C501911101C0289A84FF18C08091E200F0
:1027B0008E7E81608093E2008091E1008F7E809325
:1027C000E1008091B8018E7E80618093B8019F9175
:1027D0008F910F900FBE0F901F90189580FFF7CF2D
:1027E0008091E2008E7E80618093E2008091E10022
:1027F0008E7E8093E1008091B8018E7E8160E5CF6E
:102800001F920F920FB60F921124CF92DF92EF9288
:10281000FF920F931F932F933F934F935F936F9369
:102820007F938F939F93AF93BF93EF93FF93CF9338
:10283000DF93CDB7DEB76C97DEBFCDBF1092E90056
:102840008091E80083FF25C068E0CE0145960E9494
:102850001C0B82EF8093E8008D8987FF39C090912F
:10286000E80090FFFCCF982F907609F034C19E8944
:102870004F89588D2F89F88C911131C0803861F5BE
:102880008091B6018093F1001092F1008EEF809359
:10289000E8006C960FB6F894DEBF0FBECDBFDF9197
:1028A000CF91FF91EF91BF91AF919F918F917F91C8
:1028B0006F915F914F913F912F911F910F91FF90D9
:1028C000EF90DF90CF900F900FBE0F901F90189554
:1028D0009EEF9093E800C7CF1092F100D5CF9130D2
:1028E00059F48111D3CF4130510581F68091B60161
:1028F0008D7F8093B601CACF933049F48111C6CF42
:102900004130510519F68091B6018260F2CF9530C1
:1029100041F48091E80080FFFCCF20682093E30021
:10292000B5CF963009F0A9C00B8D1C8D22E0109216
:10293000E9001092B4011092B301F2122EC010926D
:10294000B2011092B1010E94EB0A1F8299E09983B3
:10295000FA8291E09E8390EA98879AEF9987209176
:10296000B3013091B401275F3F4F3C832B838D83AC
:102970001092E9001092B4011092B3011093B201C9
:102980000093B10149E050E0BE016F5F7F4F80E0EE
:102990000E94C50A0E94EB0A79CF1093B2010093FE
:1029A000B1010E94020ADC0112960D911C910115E1
:1029B000110509F451C1D801ED91FC910480F58114
:1029C000E02DBE016B5E7F4FC8010995009709F0AD
:1029D0003EC1F80100851185EACFF3E0FF120EC079
:1029E0008F89882309F440C0823061F440E860E1B7
:1029F0008BE992E10E947C16811148CF81E280939D
:102A0000EB0047CF813029F440E86BE08FE892E19A
:102A1000F1CF833099F70E94020ADC011296ED9003
:102A2000FC908E010F5F1F4F6801E114F10479F0F3
:102A3000D701ED91FC910680F781E02DB801C70127
:102A40000995080F111DF701E084F184EECFD8013C
:102A50001C92F60101900020E9F73197BF016C1933
:102A60007D0940E0C601C6CF69E772E1FB014491F0
:102A700050E080E80E94C50A09CF973009F4BECF24
:102A8000983021F481E08093F10000CF993009F073
:102A9000FDCE837009F0B2CFE1E4F1E081E031E0F6
:102AA00096E32191222371F08093E9003093EB00AB
:102AB000DF0111972C912093EC009093ED008F5F34
:102AC000873079F78EE78093EA001092EA008F89C9
:102AD0008093C601DBCE8B8D9C8D1092E900109205
:102AE000B4011092B3019093B2018093B101898D2A
:102AF000811192C08E899D89913A49F4813209F001
:102B00007DCF47E050E06EE271E080E0B3CF9132DC
:102B100009F074CF833269F48F89988DB0E0A0E01A
:102B200080932A0190932B01A0932C01B0932D0147
:102B3000ADCE803269F48091E80082FFFCCF67E07F
:102B40008EE291E00E941C0B8BEF8093E8009ECEFA
:102B5000823209F09BCE8F8980933501EEEFFFE73B
:102B6000859194918B3F9C4D51F1E0E0F8E080918C
:102B70002E0190912F01A0913001B0913101803B45
:102B80009440A105B105F1F48091350180FD1AC092
:102B9000EE3F8AE0F80789F587E797E7918380831E
:102BA000809160008093B50188E19BE00FB6F894B6
:102BB000A895809360000FBE9093600067CEEEEF03
:102BC000FAE0D5CF808191818737974709F05ECEB3
:102BD000A895809160008861809360008091B50124
:102BE00080936000EE3F2AE0F20789F08091FE0AB0
:102BF0009091FF0A9183808349CE808191818737AC
:102C0000980751F29093FF0A8093FE0AC5CF109265
:102C1000FF0A1092FE0A3ACE0E94020ADC011296C6
:102C20000D911C910115110509F4E8CED801ED9123
:102C3000FC910190F081E02DBE016B5E7F4FC801D9
:102C40000995811123CEF80100851185EBCF181667
:102C500019060CF41BCED2CEF1E0FF12BECE6DE70A
:102C600072E104CF1F920F920FB60F9211242F938F
:102C70003F938F939F93AF93BF93809170019091F7
:102C80007101A0917201B091730130916B0123E049
:102C9000230F2D3758F50196A11DB11D20936B010F
:102CA0008093700190937101A0937201B0937301AE
:102CB00080916C0190916D01A0916E01B0916F01B6
:102CC0000196A11DB11D80936C0190936D01A0939D
:102CD0006E01B0936F01BF91AF919F918F913F9122
:102CE0002F910F900FBE0F901F90189526E8230F7D
:102CF0000296A11DB11DD2CFEF92FF920F931F93A9
:102D0000CF93DF93F82E192FE62E042F81E0860F44
:102D1000880F0E94970A83E00E94970ACF2DD12F37
:102D2000EC0EFD2EF11CCE15DF05B9F007FF13C028
:102D3000FE0184910E94970A182F80E00E94970A52
:102D4000812321968111EFCFDF91CF911F910F91B8
:102D5000FF90EF9008958881EDCF81E0F5CFEEEC04
:102D6000F5E01382128288EE93E0A0E0B0E0848365
:102D70009583A683B7838BE491E0918380838FEF63
:102D80009FEF95878487E2E4F6E0138212828DE557
:102D900091E091838083E6E3F6E091E090831182F5
:102DA000128213821482158216821782108611866F
:102DB00012861386EAE2F6E0108284E181838DE2D6
:102DC000828382E3838384838BE485838683878302
:102DD0008087818782878387EEE1F6E09083118286
:102DE000128213821482158216821782108611862F
:102DF000128613860895CF93DF93CDB7DEB7C15601
:102E0000D1090FB6F894DEBF0FBECDBF789484B55C
:102E1000826084BD84B5816084BD85B5826085BDD6
:102E200085B5816085BD80916E00816080936E0064
:102E30001092810080918100826080938100809156
:102E40008100816080938100809180008160809307
:102E50008000809191008260809391008091910028
:102E600081608093910080919000816080939000B8
:102E70008091C10084608093C1008091C100826014
:102E80008093C1008091C10081608093C1008091D6
:102E9000C30081608093C3008091C00082608093F2
:102EA000C0008091C20081608093C20080917A004E
:102EB000846080937A0080917A00826080937A00A7
:102EC00080917A00816080937A0080917A00806896
:102ED00080937A001092C6011092B6011092B80148
:102EE0008091D70081608093D70080EA8093D800DA
:102EF00089B5806189BD89B5826089BD09B400FE4C
:102F0000FDCF61E070E080E090E00E947B0B80915B
:102F1000D8008F7C80618093D8008091E000807F12
:102F20008093E0008091E1008E7E8093E1008DE04F
:102F30008093E200559A209A81EC80937C0085B1C1
:102F4000806F85B984B1877E84B984B1876E84B976
:102F50005E9A5F988AB1806D8AB9769A6E9881B3CD
:102F6000806F81BB899880B38D7080BB80E58CBDFC
:102F700081E08DBD85E090E00E94680E5F9A85E05B
:102F800090E00E94680E5E985C98EAE7F6E087E8B9
:102F900096E024912EBD00000DB407FEFDCF3196C2
:102FA0008E179F07B1F75C9A81E880936400809147
:102FB00065008160809365000E94800E0E946D0E06
:102FC00087FF15C05C9885EA8EBD00000DB407FE32
:102FD000FDCF5C9A2E982F982D9880916400806286
:102FE0008093640081E083BF889513BEFCCF0E946C
:102FF0006D0E82FF48C02D980E946D0E8478843833
:10300000E1F40E94660E88EC90E00E94680E2F9812
:1030100082E090E00E94252A8F3F29F06FEF82E046
:1030200090E00E942D2A84EF91E00E94680E2F9A72
:103030000E946D0E84788438D9F30E946D0E8471DD
:103040008431E1F40E94660E88EC90E00E94680EE4
:103050002E9882E090E00E94252A882329F060E0E3
:1030600082E090E00E942D2A84EF91E00E94680E99
:103070002E9A0E946D0E84718431D9F388EC90E011
:103080000E94680EB4CF0E94660E82E090E00E941B
:103090008F13882309F493C03E9A3F9A81E090E011
:1030A0000E948F13082F0470702E81FF11C0011130
:1030B0002E9801EF1FEFB8E0EB2EF12C88E5382EAB
:1030C0000E946D0E86FF7EC02E9A2F9A0E94660E79
:1030D00082E390E00E94680E0E946D0E8111F8CF8D
:1030E000809164008E7F8093640080917A00806478
:1030F00080937A0080917A0086FDFCCF0091780061
:10310000109179000E94560BAB01BC01C801B0E0E0
:10311000A0E0DC01992788278C019D01040F151F71
:10312000261F371FC901B801209164002160209338
:103130006400611571058105910511F00E941C2A3A
:10314000109290008AE08093910090E190930001AA
:10315000109292011092910126E330E03093940195
:10316000209393019EE1909395018093960141E411
:1031700050E050938B0140938A0130938D0120934E
:103180008C0194E190938E0180938F018FB7F89416
:1031900040917001509171016091720170917301C1
:1031A0008FBF80917401882309F4E1C010927401EB
:1031B00080E090E0892B51F30E940000E7CF3E9819
:1031C0003F986CCF772029F00430110511F42E9A26
:1031D0002F9881E00E948109980117FF04C02227DF
:1031E0003327201B310B27703327C80117FD0796A3
:1031F000A3E095958795AA95E1F717FF05C001977C
:10320000A701421B530B9A01BC017695762F6627C6
:103210007795679562537E4FB0E0A0E02701421A90
:10322000530A8E3F5FEF950709F451C03A9E500153
:103230003B9EB00C112450E040E0F501E653FA4FFC
:103240005F014B01F0E88F0E911C8F3F9807D9F07A
:10325000F501E40FF51F64906B01C40ED51EE62D39
:10326000F0E0022E02C0EE0FFF1F0A94E2F767960D
:10327000FFAFEEAF6797F60164886696FFAD66977D
:103280006F2AF601648A21153105D9F0F501E40FA2
:10329000F51F64906401C40ED51EE62DF0E0042CE9
:1032A00002C0F595E7950A94E2F76796FFAFEEAF97
:1032B0006797F60164886696FFAD66976F2AF601F8
:1032C000648A4F5F5F4F4835510509F0BECF0196C4
:1032D00060587F4F119709F047C00E94800E8FE021
:1032E00090E00E94680E0F5F1F4F0931110509F031
:1032F000E7CE772011F02F9A2D9880E991E00E9477
:10330000680E0E94660E81E090E00E948F1380FF9D
:10331000DFCE8AE090E00E948F139FEF980F9E3FD0
:1033200008F0D6CE22E330E03093A5012093A4012B
:1033300028E330E03093A7012093A6010BE010E0D2
:10334000682F82E496E00E94CC0FC8010E948F1380
:103350000F5F1F4F0131110599F70E94800E88EE13
:1033600093E00E94680EB4CEA1E0B0E05ACF809105
:103370007501142F181B812F90910001191748F423
:103380008F5F891708F014CF81E083BF889513BE43
:103390000FCF81E080937401409375018091C90142
:1033A0009091CA0101969093CA018093C9018091BE
:1033B000AA01882339F081508093AA01811102C0AB
:1033C000109290008091A9018093A8010E946D0E37
:1033D0008093A90180E0EEECF1E081118FEF0024F1
:1033E00081938193819381930394D1F71092A701E4
:1033F0001092A6011092A5011092A4018091A30140
:10340000811122C08CE99DE09093A2018093A101DB
:103410008AE59DE09093A00180939F010091AF0108
:103420001091B0010230110511F40C9489260CF0B2
:1034300085C00115110509F4C6C00130110509F454
:1034400000C20E94800EB4CE813049F488E19DE034
:103450009093A2018093A10186ED9CE0DBCF8230A6
:1034600049F484E99CE09093A2018093A10182E554
:103470009CE0D0CF833049F480E19CE09093A2019E
:103480008093A1018EEC9BE0C5CF843049F48CE899
:103490009BE09093A2018093A1018AE49BE0BACFC4
:1034A000853049F480E09BE09093A2018093A101D4
:1034B00086EB9AE0AFCF863049F484E79AE09093A8
:1034C000A2018093A10182E39AE0A4CF873049F45E
:1034D00080EF99E09093A2018093A1018EEA99E098
:1034E00099CF883049F48CE699E09093A2018093BB
:1034F000A1018AE299E08ECF893049F488EE98E004
:103500009093A2018093A10186EA98E083CF8A304C
:1035100049F48CE598E09093A2018093A10182E1A7
:1035200098E078CF8B3009F079CF88EC97E09093D2
:10353000A2018093A1018EE797E06CCF03301105C3
:1035400011F40C9412290430110509F07ACF89E2A4
:1035500090E09093A5018093A4016EE170E07093D8
:10356000A7016093A60189EE9DE00E942F1083E2DF
:1035700090E09093A5018093A40102E310E01093E2
:10358000A7010093A6018EED9DE00E942F101092DE
:10359000A5011092A4011093A7010093A60103E0D6
:1035A0002DE045E36BE170E085E290E00E9473104E
:1035B00088E00E94750E882309F443CF0E9487118A
:1035C00081E090E01AC145E35EE070E060E090E0E9
:1035D00080E00E941C0E1091AE011F5F1093AE019F
:1035E0001031A0F043E15EE061E270E080E690E03F
:1035F0000E941C0E43E15EE061E270E080E190E039
:103600000E941C0E1E3111F41092AE0180E10E9446
:10361000750E8823C9F08091AD018330A8F48091A4
:10362000AC0181110CC081E08093AA0180E48093F9
:10363000900084E09DE090939900809398008091A1
:10364000AD018F5F8093AD0180E80E94750E8823E5
:10365000C9F08091AD018823A9F08091AC0181115E
:103660000CC081E08093AA0180E48093900084E004
:103670009DE090939900809398008091AD018150D6
:103680008093AD011091AD011111BCC08FE2809308
:103690009E0181E280939D0181E580939C0180E2FF
:1036A0000E94750E8823A1F0123091F48091AC0134
:1036B00081110CC081E08093AA0180E48093900086
:1036C00084E09DE0909399008093980010929B0174
:1036D00080E40E94750E8823B9F08091AD0182309C
:1036E00099F48091AC0181110CC081E08093AA0112
:1036F00080E48093900084E09DE090939900809313
:10370000980081E080939B0180919B01882349F080
:1037100020E04EE557E06AE270E089E390E00E9425
:103720002F0E60919D0170E040919C0150E08091CE
:103730009E019B0190E00E94A10E84E00E94750E04
:10374000882339F08091AD01833019F481E08093B2
:10375000AC0188E00E94750E882331F08091AD01A4
:10376000833011F41092AC011091AC01111108C01A
:1037700048E557E061E370E08CE490E00E941C0EA5
:1037800088E00E94750E8823E1F08091AD018111DF
:1037900018C011110CC081E08093AA0180E48093CD
:1037A000900087EE93E09093990080939800109298
:1037B000AB0181E090E09093B0018093AF01109253
:1037C000C70188E00E94750E882309F43ACE8091E3
:1037D000AD01813009F035CE9091AC0191110BC053
:1037E0008093AA0180E48093900087EE93E0909309
:1037F00099008093980082E090E09093B0018093CC
:10380000AF011FCE113041F485E380939E0188E221
:1038100080939D018AE441CF123041F488E3809384
:103820009E018FE280939D0187E437CF133009F02A
:1038300036CF85E380939E0186E380939D0189E4E2
:103840002CCF8091260190912701813491053CF481
:10385000809124019091250181389105B4F08091E7
:10386000AC0181110CC083E08093AA0180E48093B5
:1038700090008FE19EE4909399008093980084E0FB
:1038800090E09093B0018093AF012091C9013091F5
:10389000CA01C90160E570E00E94432D892B49F4FB
:1038A00080912201909123010197909323018093AD
:1038B0002201C90166E970E00E94432D892B49F479
:1038C0008091200190912101019790932101809393
:1038D000200180912201909123018C3E9F4F34F46E
:1038E00080E890E090932301809322018091200151
:1038F000909121018C3E9F4F34F480E890E09093AA
:1039000021018093200142E457E064E170E080915E
:103910002201909123010E941C0E42E457E069E1CC
:1039200070E080912001909121010E941C0E8091F5
:10393000990190919A010E94351321E043E16BE0D7
:1039400070E08EE390E00E944A10D12CC12C29E057
:10395000E22EF12C3EEE432E55245A9448EFA42E2D
:10396000BB24BA946FEFC61AD60A0E5F1F4FA00E83
:10397000B11E3E2C330C339421E0432D84E1682E9C
:10398000712C6E187F08B301C601CE960E944A10B2
:1039900094E1892E912C8C189D0821E0402FB401D0
:1039A000C701CE960E944A1021E0432DB3018EE359
:1039B00090E08C199D090E944A1021E0402FB4012B
:1039C0008EE390E08E199F090E944A10CE14DF0406
:1039D0000CF4F7C020E044E257E070E060E086E6D7
:1039E00090E00E942F0E80E790E09093A5018093D5
:1039F000A4011092A7011092A601809197019091C5
:103A000098010E94351386E0E4E2F1E0DE01A15B5B
:103A1000BF4F01900D928A95E1F7209124013091DA
:103A200025016091260170912701E0902801D09036
:103A3000290186E0E1E9F1E0DE01A75BBF4F0190DB
:103A40000D928A95E1F780919101909192014091B8
:103A50009501E20EF32EF11C50E08E159F050CF03F
:103A6000BBC0FA01E80FF91F2E173F070CF0B4C0D6
:103A7000E0919301F0919401DB01AD0DB11DEA17C6
:103A8000FB070CF0A9C0A0919601EA0FF11D6E177B
:103A90007F070CF0A1C0821793070CF09DC0E1E0F6
:103AA000E093900116E0E4E2F1E0DE01AD5BBF4F90
:103AB00001900D921A95E1F716E0EAE8F1E0DE01D7
:103AC000DD9601900D921A95E1F700918A0110910F
:103AD0008B01A0918E010E151F05DCF4F801EA0F91
:103AE000F11D2E173F07ACF4E0908C01F0908D0192
:103AF000FB01ED0DF11DEE16FF065CF4E0918F0168
:103B0000EE0EF11C6E157F0524F4021713070CF45A
:103B100066C010928901E0918701F091880160915F
:103B20001E0170911F01E0901C01F0901D01309763
:103B300009F459C06115710509F4BAC02091240136
:103B400030912501480F591F4C5051092417350752
:103B500031F46115710519F4E230F10579F0A00F27
:103B6000B12FB11D1C972A173B0709F0FEC0623028
:103B7000710509F0FAC0309709F0F7C0409185014E
:103B8000442309F4F2C041E0409383011092C8013C
:103B9000E330F10509F063C3215031093093250169
:103BA000209324016330710509F0E9C020912401BC
:103BB00030912501215031093093250120932401B2
:103BC000DEC0B7FCCFCE41E0E41AF10852E0450E6A
:103BD000511CA40CB51CC6CE1092900163CF61E0BD
:103BE0006093890198CF6230710509F0A3CFB0913D
:103BF0008601BB2371F06901B7E0CB0ED11CC01662
:103C0000D1063CF0B1E4CB2ED12CD0922701C0924A
:103C10002601C090CB01D090CC01CE0CDF1CB0911E
:103C2000C801BB2381F0C216D3066CF0B0918501A8
:103C3000B11109C02F5F3F4F30932501209324011C
:103C400021E0209384012091240130912501580125
:103C5000AA0EB11CBCE0AB1AB1082A153B056CF4E6
:103C6000B0918501BB2349F02F5F3F4F3093250171
:103C70002093240121E0209384012091240130919C
:103C80002501C216D3060CF059CF209189012111CC
:103C900055CF20918501211151CF209126013091DE
:103CA00027012F5F3F4F309327012093260146CFF6
:103CB000E230F10509F042CF209124013091250135
:103CC000B0918601BB2371F06901B7E0CB0ED11C26
:103CD000C816D9063CF0B1E4CB2ED12CD0922701E6
:103CE000C0922601A0901A01B0901B01C090CB0198
:103CF000D090CC01CA0CDB1CB091C801BB2381F071
:103D0000C216D3066CF0B0918501B11109C02F5FC6
:103D10003F4F309325012093240121E0209384011B
:103D200020912401309125015A01A80EB91EBCE052
:103D3000AB1AB1082A153B056CF4B0918501BB2381
:103D400049F02F5F3F4F309325012093240121E05C
:103D5000209384012091240130912501C216D306BD
:103D60000CF0ECCE2091900192CF10928301E330C1
:103D7000F10509F074C24091850141110DCF8E37D4
:103D800091050CF086C2EF2B09F072C220918301DD
:103D9000222311F40C9471292091CD0121110C944E
:103DA00071296230710511F00C94712924E030E022
:103DB0003093880120938701109284018F3F9807E8
:103DC00009F459C201979093920180939101F19463
:103DD000E194F1088091910190919201E816F90621
:103DE00034F080E890E0909392018093910180916B
:103DF0009101909192018038910509F06CC08091F9
:103E00009B0181112EC00E94CD2929E130E040E0C4
:103E100050E00E943B2A615F7F4F8F4F9F4F70930E
:103E20001D0160931C0160911A0170911B01605F7C
:103E30007F4F072E000C880B990B2AE530E040E0FD
:103E400050E00E94651370938201609381010E948B
:103E5000CD2924E030E040E050E00E943B2A60930E
:103E6000800180919B01882371F10E94CD292FE070
:103E700030E040E050E00E943B2A6B5F7F4F8F4F65
:103E80009F4F70931D0160931C0160911A01709106
:103E90001B01605F7F4F072E000C880B990B2AE5F2
:103EA00030E040E050E00E9465137093820160931F
:103EB00081010E94CD2923E030E040E050E00E94E3
:103EC0003B2A6093800181E090E090938801809389
:103ED00087018093190120918101309182018091A5
:103EE000870190918801019781F4809191019091CF
:103EF000920140911C0140939501281739072CF439
:103F000001979093920180939101809191019091FA
:103F100092018217930731F422E030E03093880158
:103F20002093870120911E0130911F012115310539
:103F3000A9F44091CD01411111C0409187015091E8
:103F400088014230510551F440918301442331F0FE
:103F500043E050E0509388014093870140918701EE
:103F6000509188014330510579F440911C015091E2
:103F70001D01519541955109481759072CF4019796
:103F8000909392018093910180919101909192017F
:103F9000892B31F4109288011092870110928501CB
:103FA00080918A0190918B018E3791050CF08BC125
:103FB000232B09F077C120918301222311F40C9463
:103FC00078292091CD0121110C9478292091870125
:103FD000309188012230310514F40C94782924E0C2
:103FE00030E030931F0120931E01109284018F3F17
:103FF000980709F45AC1019790938B0180938A0125
:1040000080911A0190911B019195819591092091C0
:104010008A0130918B018217930734F080E890E099
:1040200090938B0180938A0180918A0190918B01FA
:104030008038910509F06CC080919B0181112EC0E0
:104040000E94CD2929E130E040E050E00E943B2A67
:10405000615F7F4F8F4F9F4F70931B0160931A01D9
:1040600060911C0170911D01665F7F4F072E000C4F
:10407000880B990B2AE530E040E050E00E94651380
:1040800070931801609317010E94CD2924E030E05D
:1040900040E050E00E943B2A6093800180919B01A8
:1040A000882371F10E94CD292FE030E040E050E0FC
:1040B0000E943B2A6B5F7F4F8F4F9F4F70931B0176
:1040C00060931A0160911C0170911D01665F7F4F22
:1040D000072E000C880B990B2AE530E040E050E0F9
:1040E0000E94651370931801609317010E94CD29F7
:1040F00023E030E040E050E00E943B2A60938001E2
:1041000081E090E090931F0180931E01809319013C
:10411000209117013091180180911E0190911F018B
:10412000019781F480918A0190918B0140911A014D
:1041300040938E01281739072CF4019790938B0137
:1041400080938A0180918A0190918B012817390709
:1041500031F422E030E030931F0120931E01E09003
:104160008701F090880100918301A2960FAFA2977A
:1041700014E0E116F10499F42091CD0121110FC052
:1041800020911E0130911F012230310541F400239E
:1041900031F023E030E030931F0120931E01209185
:1041A0001E0130911F012330310579F420911A014D
:1041B00030911B01319521953109281739072CF4CD
:1041C000019790938B0180938A01C0908A01D090CF
:1041D0008B01C114D10421F410921F0110921E0111
:1041E000A0901E01B0901F0122E0A216B10409F0B8
:1041F00073C0E114F10409F478C040909601009175
:10420000950168960FAF6897009193011091940102
:1042100067961FAF0EAF6797209091013090920183
:10422000810168962FAD6897220D332D311D6F9651
:104230003FAF2EAF6F976F964EAD5FAD6F97041780
:1042400015070CF055C021E0442D67966EAD7FAD8B
:104250006797C8010E944A100F5F1F4FECCF633071
:10426000710509F08CCD2091850121119FCC87CD5E
:104270008F3F980771F42091990130919A012F5F37
:104280003F4F30939A01209399011092CC011092E4
:10429000CB0120918701309188012430310509F04C
:1042A00096CD90CD8F3F980771F41092CC0110926B
:1042B000CB012091990130919A012F5F3F4F3093AC
:1042C0009A012093990120911E0130911F01243001
:1042D000310509F095CE8FCE32E0E316F10409F0F6
:1042E0008CCFA114B10409F088CF1092850185CF3D
:1042F00000918F016A960FAF6A9710918E016B96AD
:104300001FAF6B9700918C0110918D0146016B9648
:104310002FAD6B972C0D3D2D311D6D963FAF2EAF00
:104320006D976D964EAD5FAD6D978416950664F4EE
:1043300021E06A964FAD6A97B801C4010E944A1005
:104340005FEF851A950AEDCF0E946D0E82FF11C0B6
:1043500080911901882369F0E114F10409F4C2C0C5
:10436000A114B10441F472E0E716F10409F4BFC0EE
:1043700002C01092CD016091CB017091CC01161654
:104380001706ACF4E114F10409F0BEC082E0A816EF
:10439000B10469F44091C9015091CA0180911C0196
:1043A00090911D01820D931D01970E94041286E0D9
:1043B000E6E3F1E0DE01D79601900D928A95E1F7F0
:1043C00020913601309137016090380170903901A9
:1043D00090913A0150903B0186E0E1E9F1E0DE0185
:1043E000D19601900D928A95E1F7E92FF0E0A19620
:1043F000FFAFEEAFA197AF01420F531F2416350652
:104400000CF095C06F966EAD7FAD6F97261737078E
:104410000CF08DC0C301850D911D6796EEADFFAD0B
:104420006797E817F9070CF082C0CF01840D911D42
:10443000681679060CF07BC081E08093850180913D
:10444000CD01811108C08091CB019091CC010297E0
:1044500014F010921901A2960FADA297002331F02B
:104460008CE99FEF90933701809336016896EFAC0B
:104470006897E6942E2D2250330B7901E20CF31C41
:10448000F0921201E09211016B960FAD6B970695B9
:104490000250110B0C0D1D1D10930C0100930B010C
:1044A00040901601809115018090130190901401A5
:1044B0006701A701480F511D69965FAF4EAF69971D
:1044C00069966EAD7FAD6997C616D7060CF05FC0D2
:1044D00020E0442DB401C6010E944A107FEFC71AA4
:1044E000D70AEECF62E0A616B10409F044CF81E00E
:1044F0008093CD018091CB019091CC010196909356
:10450000CC018093CB0137CFAB2809F050CF92E09C
:10451000E916F10409F04BCF4091C9015091CA014D
:1045200080911A0190911B018C0D9D1D3DCF86E05D
:10453000E6E3F1E0DE019B9601900D928A95E1F7AA
:1045400086E0EAE8F1E0DE01959601900D928A9509
:10455000E1F7C416D5060CF072CF6D964EAD5FAD87
:104560006D97241735070CF06ACFC301850D911D97
:10457000081719070CF063CFC8016A965FAD6A97F8
:10458000850F911D681679060CF059CF55CF809193
:10459000100166968FAF669780910F01A0900D0174
:1045A000B0900E0168011801280E311CC214D3040A
:1045B00064F420E066964FAD6697B501C6010E948F
:1045C0004A109FEFC91AD90AF1CF86E0E6E3F1E07D
:1045D000DE015F9601900D928A95E1F78091360198
:1045E0009091370126E0E1E1F1E0DE01599601907A
:1045F0000D922A95E1F7A1964EAD5FADA197480FB8
:10460000591F20917F01E416F5060CF048C0699609
:10461000EEADFFAD69978E179F070CF040C0B30158
:10462000650D711D86169706D4F5840C911C6814CF
:104630007904ACF5211133C080917D0190917E0108
:10464000019690937E0180937D0120919701309196
:104650009801C901019690939801809397018091E8
:104660007B0190917C01AC014F5F5F4F50937C01C7
:1046700040937B0141E040937F014093C70140910B
:10468000AB014F5F4093AB0140919B01411130C0A2
:104690008091C801811140C010927F013DC036E079
:1046A000E6E3F1E0DE01539601900D923A95E1F7D1
:1046B00036E0EBE0F1E0DE011D9601900D923A95B7
:1046C000E1F704171507FCF482159305E4F4C30120
:1046D000850D911DA816B906B4F466960FAD6697C0
:1046E000A00EB11C6A147B0474F42111D1CFA4CFA5
:1046F0002E5F3F4F3093980120939701029690933D
:104700007C0180937B018091C80190917F01911180
:10471000C1CF81111092AB0180918001823009F0EC
:104720005EC080911E0190911F01019739F5409163
:104730008A0150918B012091170130911801C90114
:10474000019648175907D1F425503109032E000C62
:10475000440B550B609191017091920180911C0165
:1047600090911D01680F791F072E000C880B990B83
:104770000E94651370930A0160930901809187017B
:1047800090918801019759F54091910150919201C2
:104790002091810130918201C901019600910301AC
:1047A0001091040148175907E1F525503109032EEE
:1047B000000C440B550B60918A0170918B01809124
:1047C0001A0190911B01680F791F072E000C880BAE
:1047D000990B0E9465137093080160930701809103
:1047E00087019091880100910301109104010097C5
:1047F00009F058C280911E0190911F01029789F41F
:104800008091090190910A01909302018093010126
:1048100020917A0144E257E0B801645F7F4F0E9423
:104820002F0E809179018F5F809379018A3008F093
:1048300048C510927A0186E0E4E2F1E0DE011796C5
:1048400001900D928A95E1F7609124017091250104
:104850002091260130912701409128018091290162
:1048600096E0E1E0F1E0DE01119601900D929A955B
:10487000E1F7E0910101F0910201460F572F511D20
:10488000E417F507D4F590910501E90FF11D6E17B6
:104890007F079CF5820F932F911D081719076CF560
:1048A00080910601080F111D2017310734F5809102
:1048B0008601882311F141E04093C70120919701BF
:1048C0003091980180917B0190917C0166EF7FEFA0
:1048D00070930A01609309017093080160930701C6
:1048E00040939B012E5F3F4F309398012093970197
:1048F000029690937C0180937B018091AB0185307F
:1049000049F583E08093C70120917B0130917C01C0
:10491000C901059690937C0180937B01809197015A
:1049200090919801AC014B5F5F4F50939801409379
:1049300097011092AB0140919B01442379F0265FCF
:104940003F4F30937C0120937B010A96909398010E
:10495000809397018091C7018330A9F480919B01D6
:10496000882309F4AEC189E690E09093A501809375
:10497000A4018CE090E09093A7018093A60180E2CF
:1049800097E00E942F1080911E06813061F48CE91F
:104990009DE09093A2018093A1018AE59DE0909310
:1049A000A00180939F0180911F06813061F488E10E
:1049B0009DE09093A2018093A10186ED9CE09093ED
:1049C000A00180939F0180912006813061F484E9E9
:1049D0009CE09093A2018093A10182E59CE09093DA
:1049E000A00180939F0180912106813061F480E1D4
:1049F0009CE09093A2018093A1018EEC9BE09093A8
:104A0000A00180939F0180912206813061F48CE89F
:104A10009BE09093A2018093A1018AE49BE0909394
:104A2000A00180939F0180912306813061F480E092
:104A30009BE09093A2018093A10186EB9AE0909372
:104A4000A00180939F0180912406813061F484E766
:104A50009AE09093A2018093A10182E39AE090935F
:104A6000A00180939F0180912506813061F480EF41
:104A700099E09093A2018093A1018EEA99E090932E
:104A8000A00180939F0180912606813061F48CE61D
:104A900099E09093A2018093A1018AE299E090931A
:104AA000A00180939F0180912706813061F488EEF8
:104AB00098E09093A2018093A10186EA98E09093F8
:104AC000A00180939F0180912806813061F48CE5DC
:104AD00098E09093A2018093A10182E198E09093E5
:104AE000A00180939F0180912906813061F488ECB8
:104AF00097E09093A2018093A1018EE797E09093B5
:104B0000A00180939F0184E00E94750E8823E1F04C
:104B1000809186018823C1F0809178018630A0F0D1
:104B20008091AC0181110CC083E08093AA0180E4E4
:104B30008093900087E893E1909399008093980088
:104B40001092860110927801809184018111C8C071
:104B500010927701109276010091860120917601E2
:104B60006091260170912701809124019091250187
:104B7000109178011F5F0111ADC34091A1015091C7
:104B8000A2016F5F7F4F0E942F0E109378018091DA
:104B9000870190918801892BF1F580911E019091F8
:104BA0001F010297C1F584E00E94750E882399F1D8
:104BB000011131C020912401309125018091910192
:104BC0009091920140911C0150911D01840F951FFD
:104BD0008217930704F580918A0190918B01281721
:104BE0003907CCF4809178018630A8F08091AC012F
:104BF00081110CC083E08093AA0180E4809390002F
:104C000087E893E1909399008093980081E08093E6
:104C10008601109278018091870190918801029716
:104C200081F580911E0190911F01892B51F584E03F
:104C30000E94750E882329F180918601811121C07F
:104C4000209124013091250180918A0190918B015E
:104C500040911A0150911B01840F951F82179307F1
:104C600084F48091910190919201281739074CF4B6
:104C700080917801863028F081E08093860110923F
:104C800078018091AC01811102C00E94DF1088E0A0
:104C90000E94750E882311F40C94211A83E090E091
:104CA0000C94FD1B029709F0BCCD80911E019091E0
:104CB0001F01892B09F0B5CD809107019091080162
:104CC000A3CD8EE690E09093A5018093A4018CE0A3
:104CD00090E09093A7018093A6018DE197E051CEDB
:104CE0008091C9019091CA0187709927892B49F455
:104CF000809176019091770101969093770180934E
:104D00007601809176019091770102970CF020CF87
:104D100023CF20E044E257E069E370E085E090E0D3
:104D20000E942F0E8FE090E09093A5018093A40144
:104D300089E390E09093A7018093A60180917B0185
:104D400090917C010E9435132EE030E048E750E05E
:104D50006EE070E086E090E00E94A10E0AE010E0B4
:104D60001093A5010093A40185E090E09093A70122
:104D70008093A6018AE097E00E942F108091C901DC
:104D80009091CA01B8010E94432D892B49F480916A
:104D90007601909177010196909377018093760147
:104DA0008091760190917701029724F0109277011B
:104DB0001092760180E40E94750E8823C9F08091DC
:104DC000A3018B30A8F48091AC0181110CC082E06A
:104DD0008093AA0180E4809390008FE097E2909303
:104DE0009900809398008091A3018F5F8093A30125
:104DF00080E20E94750E8823C9F08091A301882368
:104E0000A9F08091AC0181110CC082E08093AA01CD
:104E100080E4809390008FE097E2909399008093D4
:104E200098008091A30181508093A3014091A1013A
:104E30005091A2012091760163E270E08CE390E052
:104E40000E942F0E1091A3011B3078F14EEF56E017
:104E500066E270E082E390E00E941C0E123008F0DF
:104E600036C1112361F18AE290E09093A50180930D
:104E7000A40185E390E09093A7018093A6018FEEB3
:104E800096E00E942F10163009F06FC186E290E084
:104E90009093A5018093A40185E390E09093A701EE
:104EA0008093A60188EC96E018C044E057E066E2E3
:104EB00070E08BE490E00E941C0E1111C7CF82E3DA
:104EC00090E09093A5018093A40185E390E09093F6
:104ED000A7018093A60188EF96E00E942F108AE236
:104EE000282E86E0382E9EE1E92E96E0F92E26E364
:104EF000C22E26E0D22E10E033E0732E45E0842E41
:104F0000912CF10161901F01462C512CA0907B0146
:104F1000B0907C01A414B504BCF084E00E94750E2E
:104F2000882391F0F601808181110EC08091A30148
:104F300018130AC001E00083A418B508B0927C01E0
:104F4000A0927B017092C701F60181916F018111DE
:104F50004BC08091A301181347C047E956E069E1AF
:104F600070E08EE390E00E941C0E20E044E257E0E7
:104F700069E270E089E190E00E942F0E05E02BE1EC
:104F80004AE269E170E090E080E00E947310909244
:104F9000A5018092A4012EE130E03093A701209377
:104FA000A60180E996E00E942F1033E6361508F43A
:104FB00032C14DE050E05093A5014093A40189E235
:104FC00090E09093A7018093A601662D70E090E099
:104FD00080E04AE00E94E71242E050E065E671E0BE
:104FE00082E496E00E94290BF60131970081C70107
:104FF00001965C01013091F58091A30118132EC038
:1050000084E00E94750E882349F110921E061092CA
:105010001F0610922006109221061092220610926E
:10502000230610922406109225061092260610924E
:1050300027061092280610922906F7010083809116
:10504000AC0181115CC17092AA01F0E4F093900070
:1050500021EE34E03093990020939800F70180818D
:1050600075018130E9F48091A301181319C089E218
:1050700090E09093A5018093A40127E130E0309364
:10508000A7012093A60187E896E00E942F1003E075
:105090002BE043E365E170E087E290E00E9473104B
:1050A0001F5F1C3009F02DCF8091AC01811102C02F
:1050B0000E94DF1088E00E94750E882311F40C9482
:1050C000211A1092B0011092AF010C94211A20E025
:1050D00044E257E065E570E083E290E00E942F0E25
:1050E000123079F48CE290E09093A5018093A401B2
:1050F00085E390E09093A7018093A60187EE96E068
:10510000ECCE133079F48EE290E09093A501809379
:10511000A40185E390E09093A7018093A60180EE1F
:1051200096E0DBCE143079F482E390E09093A50111
:105130008093A40185E390E09093A7018093A6015A
:105140008AED96E0CACE153009F09DCE8DE290E052
:105150009093A5018093A40185E390E09093A7012B
:105160008093A60182ED96E0B8CE173079F480E303
:1051700090E09093A5018093A40185E390E0909343
:10518000A7018093A60181EC96E0A7CE183079F4B0
:1051900083E290E09093A5018093A40185E390E0E1
:1051A0009093A7018093A60186EB96E096CE1930E6
:1051B00079F483E290E09093A5018093A40185E3C4
:1051C00090E09093A7018093A6018CEA96E085CEAB
:1051D0001A3079F480E390E09093A5018093A401C4
:1051E00085E390E09093A7018093A60185EA96E07D
:1051F00074CE1B3009F073CE8FE290E09093A5013E
:105200008093A40185E390E09093A7018093A60189
:105210008EE996E062CE67E070E07093A50160933E
:10522000A401CDCE8AE190E09093A5018093A401E2
:1052300047E150E05093A7014093A60184E09EE02F
:105240000E942F101092A5011092A40107E310E014
:105250001093A7010093A6018BEF9DE00E942F10F1
:1052600080E590E09093A5018093A4011093A7019D
:105270000093A60182EF9DE00E942F1003E02DE035
:1052800048E564E170E087E190E00E94731080E4FB
:105290000E94750E882331F081E090E09093B00178
:1052A0008093AF0180E20E94750E882311F40C9464
:1052B000211A1092B0011092AF010E9487110C9434
:1052C000211A91E090937A01843109F0B4CA1092C6
:1052D0007901B1CA40919F015091A001645F7F4F55
:1052E00052CC8F3F980711F00C94E71E0C943B2191
:1052F0008F3F980711F00C9400200C9455217501F4
:10530000B2CE8F929F92AF92BF92CF92DF92EF92E6
:10531000FF92CF93DF93EC01688179818A819B8131
:10532000611571058105910521F464E279ED8BE544
:1053300097E02DE133EF41E050E00E943B2A490124
:105340005A019B01AC01A7EAB1E40E945A2A6B0101
:105350007C01ACEEB4EFA50194010E94682AC60E50
:10536000D71EE81EF91EF7FE06C081E0C81AD10854
:10537000E10880E8F80AC882D982EA82FB82C70184
:10538000B6019F77DF91CF91FF90EF90DF90CF90A4
:10539000BF90AF909F908F9008958F929F92AF9201
:1053A000BF92CF92DF92EF92FF9260913C01709199
:1053B0003D0180913E0190913F016115710581058C
:1053C000910521F464E279ED8BE597E02DE133EF6F
:1053D00041E050E00E943B2A49015A019B01AC0187
:1053E000A7EAB1E40E945A2A6B017C01ACEEB4EF4B
:1053F000A50194010E94682AC60ED71EE81EF91E58
:10540000F7FE06C081E0C81AD108E10880E8F80A72
:10541000C0923C01D0923D01E0923E01F0923F01EA
:10542000C701B6019F77FF90EF90DF90CF90BF90BC
:10543000AF909F908F90089560933C0170933D01D1
:1054400080933E0190933F010895F999FECF92BD5C
:1054500081BDF89A992780B50895262FF999FECF36
:105460001FBA92BD81BD20BD0FB6F894FA9AF99A81
:105470000FBE01960895052E97FB1EF400940E941E
:10548000522A57FD07D00E946D2A07FC03D04EF424
:105490000C94522A50954095309521953F4F4F4F8F
:1054A0005F4F089590958095709561957F4F8F4FD0
:1054B0009F4F08950E948F2AA59F900DB49F900D35
:1054C000A49F800D911D11240895B7FF0C945A2AB2
:1054D0000E945A2A821B930B0895A1E21A2EAA1B3E
:1054E000BB1BFD010DC0AA1FBB1FEE1FFF1FA21794
:1054F000B307E407F50720F0A21BB30BE40BF50B91
:10550000661F771F881F991F1A9469F76095709519
:10551000809590959B01AC01BD01CF010895A29F9C
:10552000B001B39FC001A39F700D811D1124911D77
:10553000B29F700D811D1124911D08955058BB27F5
:10554000AA270E94B62A0C94372C0E94FE2B38F012
:105550000E94052C20F039F49F3F19F426F40C9496
:10556000FB2B0EF4E095E7FB0C94F52BE92F0E9442
:105570005C2C58F3BA17620773078407950720F06D
:1055800079F4A6F50C947E2C0EF4E0950B2EBA2F30
:10559000A02D0B01B90190010C01CA01A001112439
:1055A000FF27591B99F0593F50F4503E68F11A16E5
:1055B000F040A22F232F342F4427585FF3CF469576
:1055C00037952795A795F0405395C9F77EF41F1698
:1055D000BA0B620B730B840BBAF09150A1F0FF0F62
:1055E000BB1F661F771F881FC2F70EC0BA0F621F4E
:1055F000731F841F48F4879577956795B795F7953E
:105600009E3F08F0B0CF9395880F08F09927EE0FD2
:105610009795879508950E940E2CE3950C94482C3D
:105620000E94242B0C94372C0E94052C58F00E94C9
:10563000FE2B40F029F45F3F29F00C94F52B51111B
:105640000C947F2C0C94FB2B0E945C2C68F3992308
:10565000B1F3552391F3951B550BBB27AA2762176E
:105660007307840738F09F5F5F4F220F331F441F7B
:10567000AA1FA9F335D00E2E3AF0E0E832D09150AF
:105680005040E695001CCAF72BD0FE2F29D0660F9C
:10569000771F881FBB1F261737074807AB07B0E8DF
:1056A00009F0BB0B802DBF01FF2793585F4F3AF0E5
:1056B0009E3F510578F00C94F52B0C947F2C5F3FA6
:1056C000E4F3983ED4F3869577956795B795F7956B
:1056D0009F5FC9F7880F911D9695879597F9089553
:1056E000E1E0660F771F881FBB1F621773078407EF
:1056F000BA0720F0621B730B840BBA0BEE1F88F7FE
:10570000E09508950E94892B6894B1110C947F2C28
:1057100008950E94642C88F09F5798F0B92F99271C
:10572000B751B0F0E1F0660F771F881F991F1AF08C
:10573000BA95C9F714C0B13091F00E947E2CB1E047
:1057400008950C947E2C672F782F8827B85F39F046
:10575000B93FCCF3869577956795B395D9F73EF425
:1057600090958095709561957F4F8F4F9F4F0895CD
:10577000E89409C097FB3EF49095809570956195EB
:105780007F4F8F4F9F4F9923A9F0F92F96E9BB27A1
:105790009395F695879577956795B795F111F8CF1D
:1057A000FAF4BB0F11F460FF1BC06F5F7F4F8F4F88
:1057B0009F4F16C0882311F096E911C0772321F07E
:1057C0009EE8872F762F05C0662371F096E8862F16
:1057D00070E060E02AF09A95660F771F881FDAF76D
:1057E000880F9695879597F9089597F99F6780E8B0
:1057F00070E060E008959FEF80EC089500240A9423
:105800001616170618060906089500240A9412169B
:1058100013061406050608950C94FB2B0E94642CB5
:10582000D8F3E894E0E0BB279F57F0F02AED3FE083
:1058300049EC06C0EE0FBB0F661F771F881F28F0CC
:10584000B23A62077307840728F0B25A620B730BEF
:10585000840BE3959A9572F7803830F49A95BB0FD4
:10586000661F771F881FD2F790480C94FC2C092ED6
:105870000394000C11F4882352F0BB0F40F4BF2BAB
:1058800011F460FF04C06F5F7F4F8F4F9F4F0895EB
:10589000EF93E0FF07C0A2EA2AED3FE049EC5FEB9F
:1058A0000E94B62A0E94372C0F90039401FC905856
:1058B000ECEAF0E00C94082D57FD9058440F551F6A
:1058C00059F05F3F71F04795880F97FB991F61F082
:1058D0009F3F79F087950895121613061406551FF9
:1058E000F2CF4695F1DF08C0161617061806991F65
:1058F000F1CF86957105610508940895E894BB275A
:1059000066277727CB0197F908950E94982C0C946D
:10591000372C0E94FE2B38F00E94052C20F0952396
:1059200011F00C94F52B0C94FB2B11240C947F2C70
:105930000E945C2C70F3959FC1F3950F50E0551FAA
:10594000629FF001729FBB27F00DB11D639FAA27D4
:10595000F00DB11DAA1F649F6627B00DA11D661F23
:10596000829F2227B00DA11D621F739FB00DA11D44
:10597000621F839FA00D611D221F749F3327A00DFE
:10598000611D231F849F600D211D822F762F6A2F9A
:1059900011249F5750409AF0F1F088234AF0EE0FFF
:1059A000FF1FBB1F661F771F881F91505040A9F72C
:1059B0009E3F510580F00C94F52B0C947F2C5F3F9B
:1059C000E4F3983ED4F3869577956795B795F79568
:1059D000E7959F5FC1F7FE2B880F911D96958795E0
:1059E00097F908959F930E940E2C0F9007FCEE5F8D
:1059F0000C94482C9F3F31F0915020F48795779577
:105A00006795B795880F911D9695879597F9089595
:105A10009F938F937F936F93FF93EF939B01AC01C1
:105A20000E94852CEF91FF910E941C2D2F913F9198
:105A30004F915F910C94852CDF93CF931F930F931D
:105A4000FF92EF92DF927B018C01689406C0DA2E00
:105A5000EF010E94982CFE01E894A59125913591C3
:105A600045915591A6F3EF010E94B62AFE019701D8
:105A7000A801DA9469F7DF90EF90FF900F911F91E2
:105A8000CF91DF910895AA1BBB1B51E107C0AA1F4C
:105A9000BB1FA617B70710F0A61BB70B881F991FCF
:105AA0005A95A9F780959095BC01CD010895EE0F08
:0E5AB000FF1F0590F491E02D0994F894FFCFAC
:105ABE0010F6FF2D000505F6FFF6FF530037000424
:105ACE00020D003700040241000114001E00020006
